:100000000C9446000C9465000C9465000C946500FB
:100010000C9465000C9465000C9465000C946500CC
:100020000C9465000C9465000C9465000C946500BC
:100030000C9465000C940C010C9465000C94650004
:100040000C9465000C9465000C9465000C9465009C
:100050000C9465000C9465000C9465000C9465008C
:100060000C9465000C9465000C9465000C9465007C
:100070000C9465000C9465000C9465000C9465006C
:100080000C9465000C9465000C94650011241FBE4F
:10009000CFEFD0E4DEBFCDBF11E0A0E0B1E0E2EDF4
:1000A000F6E000E00BBF02C007900D92A231B1074D
:1000B000D9F721E0A2E1B1E001C01D92A332B2075D
:1000C000E1F70E94E9020C9467030C940000CF93BF
:1000D000DF9300D01F92CDB7DEB789837B836A831D
:1000E00089818A3031F48A819B81BC018DE00E9434
:1000F000670080EC90E0FC018081882F90E08072A6
:100100009927892BB1F386EC90E02981FC012083AB
:1001100080E090E00F900F900F90DF91CF910895C5
:10012000CF93DF9300D000D0CDB7DEB769837A8359
:100130008B839C8389819A81AB81BC8180930E01E2
:1001400090930F01A0931001B093110180910E01C3
:1001500090910F01A0911001B091110180931301B2
:1001600090931401A0931501B093160100000F9015
:100170000F900F900F90DF91CF910895CF93DF9361
:10018000CDB7DEB781E890E02BE0FC01208388E862
:1001900090E02DE730E0FC01318320838FE690E092
:1001A00022E0FC01208384E890E0FC0111821082AF
:1001B00080910E0190910F01A0911001B091110159
:1001C0008093130190931401A0931501B09316012D
:1001D0008FE590E02FE530E0F90120812068FC01F7
:1001E00020830000DF91CF910895CF93DF93CDB7A7
:1001F000DEB781E890E0FC0110820000DF91CF9132
:100200000895CF93DF93CDB7DEB781E080931201DD
:100210000000DF91CF9108951F920F9200905F0030
:100220000F92112400905B000F922F933F934F93F6
:100230005F936F937F938F939F93AF93BF93EF934E
:10024000FF93CF93DF93CDB7DEB7809113019091E9
:100250001401A0911501B09116010197A109B109EE
:100260008093130190931401A0931501B09316018C
:100270008091130190911401A0911501B091160184
:10028000892B8A2B8B2B91F40E94010180910E0106
:1002900090910F01A0911001B09111018093130171
:1002A00090931401A0931501B09316010000DF9103
:1002B000CF91FF91EF91BF91AF919F918F917F91DE
:1002C0006F915F914F913F912F910F9000925B0042
:1002D0000F9000925F000F901F901895CF93DF93BF
:1002E000CDB7DEB780911D0190911E01823091053E
:1002F000E1F08330910528F4009749F0019771F0FF
:1003000029C083309105C1F00497E9F023C081E052
:1003100090E090931E0180931D0121C082E090E047
:1003200090931E0180931D011AC083E090E090938A
:100330001E0180931D0113C084E090E090931E0184
:1003400080931D010CC082E090E090931E01809389
:100350001D0105C010921E0110921D010000809128
:100360001D0190911E018230910571F0833091053D
:1003700028F40097A9F00197A9F015C083309105E2
:1003800039F0049749F00FC081E0809317010BC04A
:1003900082E08093170107C084E08093170103C0B7
:1003A000000001C000000000DF91CF910895CF93BD
:1003B000DF93CDB7DEB7809121019091220181308A
:1003C000910581F08130910530F08230910589F0FE
:1003D0000397B1F01CC081E090E0909322018093DC
:1003E00021011AC082E090E09093220180932101C4
:1003F00013C083E090E090932201809321010CC010
:1004000082E090E0909322018093210105C0109238
:10041000220110922101000080912101909122017E
:100420008130910549F08130910580F0823091054D
:1004300031F0039741F00BC01092180108C088E01A
:100440008093180104C01092180101C00000000040
:10045000DF91CF910895CF93DF93CDB7DEB7809131
:100460001B0190911C01009719F0019741F00EC0FB
:1004700081E090E090931C0180931B010CC081E00F
:1004800090E090931C0180931B0105C010921C0109
:1004900010921B01000080911B0190911C0100979C
:1004A00081F0019709F00EC085E290E030911801CB
:1004B00020911701322B20911901232BFC0120835D
:1004C00001C000000000DF91CF910895CF93DF932A
:1004D000CDB7DEB780911F01909120018130910549
:1004E00069F08130910518F0029721F13DC081E05B
:1004F00090E09093200180931F013BC080E290E048
:10050000FC018081882F90E08095909587709927D5
:10051000049749F482E090E09093200180931F01BA
:1005200010921A0126C081E090E090932001809300
:100530001F011FC080E290E0FC018081882F90E0C5
:100540008095909587709927049739F482E090E020
:100550009093200180931F010CC081E090E0909364
:10056000200180931F0105C01092200110921F01ED
:10057000000080911F01909120018130910531F0A0
:100580008130910508F1029721F01FC010921901E6
:100590001CC080911A01823020F480E180931901FF
:1005A0000DC080911A01843018F41092190106C010
:1005B00080911A01843010F010921A0180911A0172
:1005C0008F5F80931A0101C000000000DF91CF917E
:1005D0000895CF93DF93CDB7DEB72C970FB6F8947D
:1005E000DEBF0FBECDBF19821A821B821C821D8204
:1005F0001E821F82188681E090E0A0E0B0E089872B
:100600009A87AB87BC8781E290E0FC01108282E28E
:1006100090E02FEFFC01208384E290E02FEFFC01BB
:10062000208385E290E0FC01108261E070E080E0D0
:1006300090E00E9490000E94BE0089819A81AB8167
:10064000BC818C329140A105B10530F00E946E0151
:1006500019821A821B821C828D819E81AF81B8858E
:10066000883E9340A105B10530F00E94D7011D825C
:100670001E821F8218860E9466020E942B020000C2
:10068000809112018823E1F31092120129813A81AD
:100690004B815C8189859A85AB85BC85820F931FD0
:1006A000A41FB51F89839A83AB83BC832D813E81B0
:1006B0004F81588589859A85AB85BC85820F931FAC
:1006C000A41FB51F8D839E83AF83B887B6CFF894E0
:0206D000FFCF5A
:1006D20000000002000000006700000000000100AE
:0206E200000016
:00000001FF
