:100000000C9446000C9465000C9465000C946500FB
:100010000C9465000C9465000C9465000C946500CC
:100020000C9465000C9465000C9465000C946500BC
:100030000C9465000C940C010C9465000C94650004
:100040000C9465000C9465000C9465000C9465009C
:100050000C9465000C9465000C9465000C9465008C
:100060000C9465000C9465000C9465000C9465007C
:100070000C9465000C9465000C9465000C9465006C
:100080000C9465000C9465000C94650011241FBE4F
:10009000CFEFD0E4DEBFCDBF11E0A0E0B1E0EEE4F1
:1000A000F8E000E00BBF02C007900D92A231B1074B
:1000B000D9F721E0A2E1B1E001C01D92A632B2075A
:1000C000E1F70E94A5030C9425040C940000CF9343
:1000D000DF9300D01F92CDB7DEB789837B836A831D
:1000E00089818A3031F48A819B81BC018DE00E9434
:1000F000670080EC90E0FC018081882F90E08072A6
:100100009927892BB1F386EC90E02981FC012083AB
:1001100080E090E00F900F900F90DF91CF910895C5
:10012000CF93DF9300D000D0CDB7DEB769837A8359
:100130008B839C8389819A81AB81BC8180930E01E2
:1001400090930F01A0931001B093110180910E01C3
:1001500090910F01A0911001B091110180931301B2
:1001600090931401A0931501B093160100000F9015
:100170000F900F900F90DF91CF910895CF93DF9361
:10018000CDB7DEB781E890E02BE0FC01208388E862
:1001900090E02DE730E0FC01318320838FE690E092
:1001A00022E0FC01208384E890E0FC0111821082AF
:1001B00080910E0190910F01A0911001B091110159
:1001C0008093130190931401A0931501B09316012D
:1001D0008FE590E02FE530E0F90120812068FC01F7
:1001E00020830000DF91CF910895CF93DF93CDB7A7
:1001F000DEB781E890E0FC0110820000DF91CF9132
:100200000895CF93DF93CDB7DEB781E080931201DD
:100210000000DF91CF9108951F920F9200905F0030
:100220000F92112400905B000F922F933F934F93F6
:100230005F936F937F938F939F93AF93BF93EF934E
:10024000FF93CF93DF93CDB7DEB7809113019091E9
:100250001401A0911501B09116010197A109B109EE
:100260008093130190931401A0931501B09316018C
:100270008091130190911401A0911501B091160184
:10028000892B8A2B8B2B91F40E94010180910E0106
:1002900090910F01A0911001B09111018093130171
:1002A00090931401A0931501B09316010000DF9103
:1002B000CF91FF91EF91BF91AF919F918F917F91DE
:1002C0006F915F914F913F912F910F9000925B0042
:1002D0000F9000925F000F901F901895CF93DF93BF
:1002E000CDB7DEB780912001909121018230910538
:1002F000E1F08330910528F4009749F0019771F0FF
:1003000029C083309105C1F00497E9F023C081E052
:1003100090E0909321018093200121C082E090E041
:1003200090932101809320011AC083E090E0909384
:1003300021018093200113C084E090E0909321017B
:10034000809320010CC082E090E090932101809383
:10035000200105C01092210110922001000080911F
:100360002001909121018230910571F08330910537
:1003700028F40097A9F00197A9F015C083309105E2
:1003800039F0049749F00FC081E0809317010BC04A
:1003900082E08093170107C084E08093170103C0B7
:1003A000000001C000000000DF91CF910895CF93BD
:1003B000DF93CDB7DEB78091240190912501813084
:1003C000910581F08130910530F08230910589F0FE
:1003D0000397B1F01CC081E090E0909325018093D9
:1003E00024011AC082E090E09093250180932401BB
:1003F00013C083E090E090932501809324010CC00A
:1004000082E090E0909325018093240105C0109232
:100410002501109224010000809124019091250172
:100420008130910549F08130910580F0823091054D
:1004300031F0039741F00BC01092180108C088E01A
:100440008093180104C01092180101C00000000040
:10045000DF91CF910895CF93DF93CDB7DEB7809131
:100460001C0190911D01009719F0019741F00EC0F9
:1004700081E090E090931D0180931C010CC081E00D
:1004800090E090931D0180931C0105C010921D0106
:1004900010921C01000080911C0190911D01009799
:1004A00081F0019709F00EC085E290E030911801CB
:1004B00020911701322B20911901232BFC0120835D
:1004C00001C000000000DF91CF910895CF93DF932A
:1004D000CDB7DEB780912201909123018130910543
:1004E00069F08130910518F0029721F13DC081E05B
:1004F00090E090932301809322013BC080E290E042
:10050000FC018081882F90E08095909587709927D5
:10051000049749F482E090E09093230180932201B4
:1005200010921A0126C081E090E0909323018093FD
:1005300022011FC080E290E0FC018081882F90E0C2
:100540008095909587709927049739F482E090E020
:1005500090932301809322010CC081E090E090935E
:1005600023018093220105C01092230110922201E1
:10057000000080912201909123018130910531F09A
:1005800081309105A8F1029721F033C01092190132
:1005900030C090911A0180911B01981720F480E1DE
:1005A000809319011FC080911A01282F30E080919B
:1005B0001B01882F90E0880F991F281739071CF41A
:1005C000109219010FC080911A01282F30E08091FC
:1005D0001B01882F90E0880F991F2817390714F006
:1005E00010921A0180911A018F5F80931A0101C045
:1005F00000000000DF91CF910895CF93DF93CDB736
:10060000DEB780911E0190911F018230910509F49F
:1006100044C08330910528F4009759F0019781F088
:1006200064C08330910509F43FC0049709F443C0C6
:100630005CC081E090E090931F0180931E015AC03E
:1006400080E290E0FC018081882F90E08095909579
:1006500087709927019739F482E090E090931F0109
:1006600080931E0147C080E290E0FC018081882FCA
:1006700090E08095909587709927029739F483E0F0
:1006800090E090931F0180931E0134C081E090E0C0
:1006900090931F0180931E012DC084E090E0909301
:1006A0001F0180931E0126C084E090E090931F01FB
:1006B00080931E011FC080E290E0FC018081882FA2
:1006C00090E08095909587709927892B39F481E087
:1006D00090E090931F0180931E010CC084E090E095
:1006E00090931F0180931E0105C010921F0110926C
:1006F0001E01000080911E0190911F018230910522
:1007000089F08330910528F4009749F00197B1F002
:1007100018C08330910561F0049791F012C01092D7
:100720001B010FC080911B01815080931B0109C0E8
:1007300080911B018F5F80931B0103C0000001C0EB
:1007400000000000DF91CF910895CF93DF93CDB7E4
:10075000DEB72C970FB6F894DEBF0FBECDBF19825F
:100760001A821B821C821D821E821F82188681E0D3
:1007700090E0A0E0B0E089879A87AB87BC8781E2F0
:1007800090E0FC01108282E290E02FEFFC012083D8
:1007900084E290E02FEFFC01208385E290E0FC01F1
:1007A000108261E070E080E090E00E9490000E9482
:1007B000BE0089819A81AB81BC818C329140A105B8
:1007C000B10530F00E946E0119821A821B821C82D0
:1007D0008D819E81AF81B885883E9340A105B1058A
:1007E00030F00E94D7011D821E821F8218860E944F
:1007F000FD020E9466020E942B02000080911201FD
:100800008823E1F31092120129813A814B815C81A6
:1008100089859A85AB85BC85820F931FA41FB51F60
:1008200089839A83AB83BC832D813E814F81588518
:1008300089859A85AB85BC85820F931FA41FB51F40
:0E0840008D839E83AF83B887B4CFF894FFCF2B
:10084E000000000200000000670000000000010030
:02085E00000098
:00000001FF
